:100000000C9446000C9465000C9465000C946500FB
:100010000C9465000C9465000C9465000C946500CC
:100020000C9465000C9465000C9465000C946500BC
:100030000C9465000C9465000C9465000C946500AC
:100040000C9465000C9465000C9465000C9465009C
:100050000C9465000C9465000C9465000C9465008C
:100060000C9465000C9465000C9465000C9465007C
:100070000C9465000C9465000C9465000C9465006C
:100080000C9465000C9465000C94650011241FBE4F
:10009000CFEFD0E4DEBFCDBF11E0A0E0B1E0EEE6EF
:1000A000F2E000E00BBF02C007900D92A831B1074B
:1000B000D9F721E0A8E1B1E001C01D92AB31B20750
:1000C000E1F70E9416010C9435010C940000CF93C7
:1000D000DF9300D01F92CDB7DEB789837B836A831D
:1000E00089818A3031F48A819B81BC018DE00E9434
:1000F000670080EC90E0FC018081882F90E08072A6
:100100009927892BB1F386EC90E02981FC012083AB
:1001100080E090E00F900F900F90DF91CF910895C5
:10012000CF93DF931F92CDB7DEB780E290E0FC0162
:100130008081882F90E08170992721E0892B09F038
:1001400020E029838091190190911A018130910555
:1001500081F08130910518F0029709F131C0898151
:10016000813099F581E090E090931A018093190114
:100170002CC08981813061F482E090E090931A0173
:1001800080931901809118018F5F809318011EC020
:1001900081E090E090931A018093190117C0898142
:1001A000813039F482E090E090931A018093190134
:1001B0000DC081E090E090931A018093190106C070
:1001C00010921A011092190101C0000080911901CA
:1001D00090911A018130910569F08130910518F0F4
:1001E0000297F1F01AC088E290E0FC0110821092B0
:1001F000180117C0809118018A3011F4109218016B
:1002000088E290E020911801222F30E0225F3E4FDB
:10021000F9012081FC01208304C01092180101C063
:10022000000000000F90DF91CF910895CF93DF93EE
:10023000CDB7DEB781E290E0FC01108280E290E071
:100240002FE0FC01208387E290E02FEFFC01208368
:1002500086E290E0FC01108210921A0110921901BE
:0E026000109218010E949000FDCFF894FFCF7D
:10026E000000000200000000670000000000000116
:08027E0003070F1F3F073800C2
:00000001FF
