:100000000C9446000C9465000C9465000C946500FB
:100010000C9465000C9465000C9465000C946500CC
:100020000C9465000C9465000C9465000C946500BC
:100030000C9465000C9465000C9465000C946500AC
:100040000C9465000C9465000C9465000C9465009C
:100050000C9465000C9465000C9465000C9465008C
:100060000C9465000C9465000C9465000C9465007C
:100070000C9465000C9465000C9465000C9465006C
:100080000C9465000C9465000C94650011241FBE4F
:10009000CFEFD0E4DEBFCDBF11E0A0E0B1E0EEE5F0
:1000A000F3E000E00BBF02C007900D92AE30B10745
:1000B000D9F721E0AEE0B1E001C01D92A031B20756
:1000C000E1F70E9490010C94AD010C940000CF93D5
:1000D000DF9300D01F92CDB7DEB789837B836A831D
:1000E00089818A3031F48A819B81BC018DE00E9434
:1000F000670080EC90E0FC018081882F90E08072A6
:100100009927892BB1F386EC90E02981FC012083AB
:1001100080E090E00F900F900F90DF91CF910895C5
:10012000CF93DF93CDB7DEB780910E0190910F0191
:100130008230910509F44DC08330910528F4009771
:1001400079F00197C9F07FC08430910509F44FC060
:100150008430910508F444C0059709F45EC073C06B
:1001600088E290E027E0FC01208381E090E090931A
:100170000F0180930E016CC080E290E0FC01808151
:10018000882F90E08095909583709927019739F496
:1001900082E090E090930F0180930E0159C080E2BD
:1001A00090E0FC018081882F90E08095909583708D
:1001B0009927029739F483E090E090930F018093A0
:1001C0000E0146C081E090E090930F0180930E01F4
:1001D0003FC084E090E090930F0180930E0138C0FF
:1001E00085E090E090930F0180930E0131C080E292
:1001F00090E0FC018081882F90E08095909583703D
:100200009927019719F484E090E002C081E090E022
:1002100090930F0180930E011BC080E290E0FC01DF
:100220008081882F90E08095909583709927029720
:1002300019F485E090E002C081E090E090930F0116
:1002400080930E0105C010920F0110920E01000064
:1002500080910E0190910F018230910509F1833058
:10026000910530F4009709F44CC0019741F04BC060
:100270008330910529F1069708F045C031C080E22E
:1002800090E0FC018081882F90E0809590958370AC
:1002900099270397D1F588E290E0FC01108235C0E0
:1002A00088E290E0FC018081893088F588E290E066
:1002B00028E230E0F90120812F5FFC01208327C074
:1002C00088E290E0FC018081882319F188E290E0C7
:1002D00028E230E0F90120812150FC01208319C07F
:1002E00080E290E0FC018081882F90E080959095DD
:1002F00083709927039779F488E290E0FC011082DB
:100300000AC0000009C0000007C0000005C00000CE
:1003100003C0000001C000000000DF91CF910895EC
:10032000CF93DF93CDB7DEB710920F0110920E017D
:1003300081E290E0FC01108280E290E02FE0FC017D
:10034000208387E290E02FE0FC01208386E290E0AA
:0E035000FC0110820E949000FDCFF894FFCFB8
:0E035E00000000020000000067000000000028
:00000001FF
